{
  "abi": [
    {
      "type": "function",
      "name": "checkHasKey",
      "inputs": [
        {
          "name": "_addr",
          "type": "address",
          "internalType": "address"
        }
      ],
      "outputs": [
        {
          "name": "",
          "type": "bool",
          "internalType": "bool"
        }
      ],
      "stateMutability": "view"
    },
    {
      "type": "function",
      "name": "decrypt",
      "inputs": [
        {
          "name": "_encryptedData",
          "type": "bytes",
          "internalType": "bytes"
        }
      ],
      "outputs": [
        {
          "name": "",
          "type": "bytes",
          "internalType": "bytes"
        }
      ],
      "stateMutability": "view"
    },
    {
      "type": "function",
      "name": "encrypt",
      "inputs": [
        {
          "name": "to",
          "type": "address",
          "internalType": "address"
        },
        {
          "name": "_plaintext",
          "type": "bytes",
          "internalType": "bytes"
        }
      ],
      "outputs": [
        {
          "name": "",
          "type": "bytes",
          "internalType": "bytes"
        }
      ],
      "stateMutability": "nonpayable"
    },
    {
      "type": "function",
      "name": "getKey",
      "inputs": [],
      "outputs": [
        {
          "name": "",
          "type": "uint256",
          "internalType": "uint256"
        }
      ],
      "stateMutability": "view"
    },
    {
      "type": "function",
      "name": "keyHash",
      "inputs": [
        {
          "name": "to",
          "type": "address",
          "internalType": "address"
        }
      ],
      "outputs": [
        {
          "name": "",
          "type": "bytes32",
          "internalType": "bytes32"
        }
      ],
      "stateMutability": "view"
    },
    {
      "type": "function",
      "name": "packEncryptedData",
      "inputs": [
        {
          "name": "_ciphertext",
          "type": "bytes",
          "internalType": "bytes"
        },
        {
          "name": "_nonce",
          "type": "uint96",
          "internalType": "uint96"
        }
      ],
      "outputs": [
        {
          "name": "",
          "type": "bytes",
          "internalType": "bytes"
        }
      ],
      "stateMutability": "pure"
    },
    {
      "type": "function",
      "name": "parseEncryptedData",
      "inputs": [
        {
          "name": "_encryptedData",
          "type": "bytes",
          "internalType": "bytes"
        }
      ],
      "outputs": [
        {
          "name": "ct",
          "type": "bytes",
          "internalType": "bytes"
        },
        {
          "name": "nce",
          "type": "uint96",
          "internalType": "uint96"
        }
      ],
      "stateMutability": "pure"
    },
    {
      "type": "function",
      "name": "setKey",
      "inputs": [
        {
          "name": "_key",
          "type": "suint256",
          "internalType": "suint256"
        }
      ],
      "outputs": [],
      "stateMutability": "nonpayable"
    },
    {
      "type": "event",
      "name": "KeySet",
      "inputs": [
        {
          "name": "addr",
          "type": "address",
          "indexed": true,
          "internalType": "address"
        }
      ],
      "anonymous": false
    },
    {
      "type": "error",
      "name": "AESPrecompileCallFailed",
      "inputs": []
    },
    {
      "type": "error",
      "name": "CiphertextCannotBeEmpty",
      "inputs": []
    },
    {
      "type": "error",
      "name": "EncryptionReturnedNoOutput",
      "inputs": []
    },
    {
      "type": "error",
      "name": "RNGPrecompileCallFailed",
      "inputs": []
    }
  ],
  "bytecode": {
    "object": "0x608060405234601c57600e6020565b6110b261002b82396110b290f35b6026565b60405190565b5f80fdfe60806040526004361015610013575b6105f0565b61001d5f3561009c565b8063210ca7be14610097578063415028a91461009257806370df09331461008d57806382678dd6146100885780638b2f9fd114610083578063b7f5f9b71461007e578063e8d6c79a146100795763eefbaf180361000e576105bb565b610560565b6104f7565b61047d565b6103c9565b610362565b6102e3565b610235565b60e01c90565b60405190565b5f80fd5b5f80fd5b5f80fd5b5f80fd5b5f80fd5b601f801991011690565b634e487b7160e01b5f52604160045260245ffd5b906100e4906100bc565b810190811067ffffffffffffffff8211176100fe57604052565b6100c6565b9061011661010f6100a2565b92836100da565b565b67ffffffffffffffff8111610136576101326020916100bc565b0190565b6100c6565b90825f939282370152565b9092919261015b61015682610118565b610103565b93818552602085019082840111610177576101759261013b565b565b6100b8565b9080601f8301121561019a5781602061019793359101610146565b90565b6100b4565b906020828203126101cf575f82013567ffffffffffffffff81116101ca576101c7920161017c565b90565b6100b0565b6100ac565b5190565b60209181520190565b90825f9392825e0152565b61020b61021460209361021993610202816101d4565b938480936101d8565b958691016101e1565b6100bc565b0190565b6102329160208201915f8184039101526101ec565b90565b346102655761026161025061024b36600461019f565b61066f565b6102586100a2565b9182918261021d565b0390f35b6100a8565b6bffffffffffffffffffffffff1690565b6102848161026a565b0361028b57565b5f80fd5b9050359061029c8261027b565b565b91906040838203126102de575f8301359067ffffffffffffffff82116102d9576102cd816102d693860161017c565b9360200161028f565b90565b6100b0565b6100ac565b34610314576103106102ff6102f936600461029e565b90610713565b6103076100a2565b9182918261021d565b0390f35b6100a8565b90565b61032581610319565b0361032c57565b5f80fd5b9050359061033d8261031c565b565b9060208282031261035857610355915f01610330565b90565b6100ac565b5f0190565b346103905761037a61037536600461033f565b6107a3565b6103826100a2565b8061038c8161035d565b0390f35b6100a8565b5f91031261039f57565b6100ac565b90565b6103b0906103a4565b9052565b91906103c7905f602085019401906103a7565b565b346103f9576103d9366004610395565b6103f56103e461081a565b6103ec6100a2565b918291826103b4565b0390f35b6100a8565b60018060a01b031690565b610412906103fe565b90565b61041e81610409565b0361042557565b5f80fd5b9050359061043682610415565b565b906020828203126104515761044e915f01610429565b90565b6100ac565b151590565b61046490610456565b9052565b919061047b905f6020850194019061045b565b565b346104ad576104a9610498610493366004610438565b610875565b6104a06100a2565b91829182610468565b0390f35b6100a8565b9190916040818403126104f2576104cb835f8301610429565b92602082013567ffffffffffffffff81116104ed576104ea920161017c565b90565b6100b0565b6100ac565b346105285761052461051361050d3660046104b2565b906108b7565b61051b6100a2565b9182918261021d565b0390f35b6100a8565b6105369061026a565b9052565b9291602061055661055e9360408701908782035f8901526101ec565b94019061052d565b565b346105915761057861057336600461019f565b610ade565b9061058d6105846100a2565b9283928361053a565b0390f35b6100a8565b90565b6105a290610596565b9052565b91906105b9905f60208501940190610599565b565b346105eb576105e76105d66105d1366004610438565b610c23565b6105de6100a2565b918291826105a6565b0390f35b6100a8565b5f80fd5b606090565b90565b61061061060b610615926103fe565b6105f9565b6103fe565b90565b610621906105fc565b90565b61062d90610618565b90565b9061063a90610624565b5f5260205260405f2090565b5f1c90565b90565b61065a61065f91610646565b61064b565b90565b61066c90b061064e565b90565b6106846106a09161067e6105f4565b50610ade565b906106986106935f3390610630565b610662565b919091610d0f565b90565b905090565b6106cd6106c4926020926106bb816101d4565b948580936106a3565b938491016101e1565b0190565b60a01b90565b6106e0906106d1565b90565b6106ef6106f49161026a565b6106d7565b9052565b61070861070f91600c94936106a8565b80926106e3565b0190565b6107469061071f6105f4565b5061073761072b6100a2565b938492602084016106f8565b602082018103825203826100da565b90565b5f1b90565b9061075a5f1991610749565b9181191691161790565b61077861077361077d92610319565b6105f9565b610319565b90565b90565b9061079861079361079f92610764565b610780565b82b061074e565b90b1565b6107b7906107b25f3390610630565b610783565b336107e27fe09b54ab39b458cc6e350a9444815a294301d94eaa79ba68d8a2f9f9c7c0b4cc91610624565b906107eb6100a2565b806107f58161035d565b0390a2565b5f90565b61081261080d61081792610319565b6105f9565b6103a4565b90565b6108226107fa565b5061083e6108396108345f3390610630565b610662565b6107fe565b90565b5f90565b90565b61085c61085761086192610845565b6105f9565b610319565b90565b151590565b61087290610864565b90565b61089361088e6108b492610887610841565b505f610630565b610662565b6108ad6108a76108a25f610848565b610319565b91610319565b1415610869565b90565b906108ec6108d96108d46108f1946108cd6105f4565b505f610630565b610662565b916108e2610eb7565b9290839091610f91565b610713565b90565b5f90565b90565b61090f61090a610914926108f8565b6105f9565b6103a4565b90565b634e487b7160e01b5f52601160045260245ffd5b61093a610940919392936103a4565b926103a4565b820391821161094b57565b610917565b9061096261095d83610118565b610103565b918252565b369037565b9061099161097983610950565b926020806109878693610118565b9201910390610967565b565b6109a76109a26109ac92610845565b6105f9565b6103a4565b90565b60016109bb91016103a4565b90565b634e487b7160e01b5f52603260045260245ffd5b906109dc826101d4565b8110156109ee57600160209102010190565b6109be565b60ff60f81b1690565b610a0690516109f3565b90565b610a18610a1e919392936103a4565b926103a4565b8201809211610a2957565b610917565b60200190565b6bffffffffffffffffffffffff60a01b1690565b610a529051610a34565b90565b1b90565b610a73610a6e610a68836101d4565b92610a2e565b610a48565b90600c8110610a81575b5090565b610aa1906bffffffffffffffffffffffff60a01b90600c03600802610a55565b165f610a7d565b60a01c90565b610ac2610abd610ac79261026a565b6105f9565b61026a565b90565b610ad6610adb91610aa8565b610aae565b90565b90610ae76105f4565b50610af06108f4565b50610b0d610afd836101d4565b610b07600c6108fb565b9061092b565b610b168161096c565b90610b205f610993565b5b80610b34610b2e846103a4565b916103a4565b1015610b6b57610b6690610b51610b4c8783906109d2565b6109fc565b610b60859183905f1a926109d2565b536109af565b610b21565b5092610b7f610b7a600c6108fb565b61096c565b91610b895f610993565b5b80610b9e610b98600c6108fb565b916103a4565b1015610bdf57610bda90610bc5610bc085610bba8a8590610a09565b906109d2565b6109fc565b610bd4869183905f1a926109d2565b536109af565b610b8a565b50935050610bef610bf491610a59565b610aca565b90565b5f90565b90565b610c0a610c0f916103a4565b610bfb565b9052565b610c1f81602093610bfe565b0190565b610c6f610c4c610c47610c42610c6094610c3b610bf7565b505f610630565b610662565b6107fe565b610c546100a2565b92839160208301610c13565b602082018103825203826100da565b610c81610c7b826101d4565b91610a2e565b2090565b91610ca4602084610c9c610cab9796600c96610bfe565b0180926106e3565b01906106a8565b90565b90565b610cc5610cc0610cca92610cae565b6105f9565b6103fe565b90565b610cd690610cb1565b90565b610ce36067610ccd565b90565b3d5f14610d0157610cf63d610950565b903d5f602084013e5b565b610d096105f4565b90610cff565b91610d186105f4565b50610d22816101d4565b610d34610d2e5f610993565b916103a4565b14610db857610d715f9392610d62610d4c86956107fe565b9193610d566100a2565b94859360208501610c85565b602082018103825203826100da565b610d79610cd9565b90602081019051915afa610d95610d8e610ce6565b9115610456565b610d9c5790565b5f63a99eec4b60e01b815280610db46004820161035d565b0390fd5b5f63e6ab92c160e01b815280610dd06004820161035d565b0390fd5b90565b610deb610de6610df092610dd4565b6105f9565b6103fe565b90565b610dfc90610dd7565b90565b610e096064610df3565b90565b90565b63ffffffff1690565b610e2c610e27610e3192610e0c565b6105f9565b610e0f565b90565b60e01b90565b610e4390610e34565b90565b610e52610e5791610e0f565b610e3a565b9052565b610e6781600493610e46565b0190565b610e7f610e7a610e84926103a4565b6105f9565b6103a4565b90565b610e93610e9891610646565b610e6b565b90565b610eaf610eaa610eb4926103a4565b6105f9565b61026a565b90565b610ebf6108f4565b505f80610eca610dff565b610eee610efd610eda6020610e18565b610ee26100a2565b92839160208301610e5b565b602082018103825203826100da565b602081019051915afa610f18610f11610ce6565b9115610456565b610f3d57610f356020610f3a92610f2d610bf7565b500151610e87565b610e9b565b90565b5f63281dbb5160e01b815280610f556004820161035d565b0390fd5b90565b610f70610f6b610f7592610f59565b6105f9565b6103fe565b90565b610f8190610f5c565b90565b610f8e6066610f78565b90565b91610fd35f9392610fc4610fae8695610fa86105f4565b506107fe565b9193610fb86100a2565b94859360208501610c85565b602082018103825203826100da565b610fdb610f84565b90602081019051915afa610ff7610ff0610ce6565b9115610456565b61103a57611004816101d4565b6110166110105f610993565b916103a4565b1461101e5790565b5f637d7da90b60e01b8152806110366004820161035d565b0390fd5b5f63a99eec4b60e01b8152806110526004820161035d565b0390fdfea26469706673582212203957b73d539dd6577b55b270396638daa3f0ed77eb251aa726e4bd8167af58e964736f6c637828302e382e33312d646576656c6f702e323032362e332e31322b636f6d6d69742e32656262333664340059",
    "linkReferences": {}
  },
  "methodIdentifiers": {
    "checkHasKey(address)": "8b2f9fd1",
    "decrypt(bytes)": "210ca7be",
    "encrypt(address,bytes)": "b7f5f9b7",
    "getKey()": "82678dd6",
    "keyHash(address)": "eefbaf18",
    "packEncryptedData(bytes,uint96)": "415028a9",
    "parseEncryptedData(bytes)": "e8d6c79a",
    "setKey(suint256)": "70df0933"
  },
  "id": 29
}