{
  "abi": [
    {
      "type": "function",
      "name": "checkHasKey",
      "inputs": [
        {
          "name": "_addr",
          "type": "address",
          "internalType": "address"
        }
      ],
      "outputs": [
        {
          "name": "",
          "type": "bool",
          "internalType": "bool"
        }
      ],
      "stateMutability": "view"
    },
    {
      "type": "function",
      "name": "decrypt",
      "inputs": [
        {
          "name": "_encryptedData",
          "type": "bytes",
          "internalType": "bytes"
        }
      ],
      "outputs": [
        {
          "name": "",
          "type": "bytes",
          "internalType": "bytes"
        }
      ],
      "stateMutability": "view"
    },
    {
      "type": "function",
      "name": "encrypt",
      "inputs": [
        {
          "name": "to",
          "type": "address",
          "internalType": "address"
        },
        {
          "name": "_plaintext",
          "type": "bytes",
          "internalType": "bytes"
        }
      ],
      "outputs": [
        {
          "name": "",
          "type": "bytes",
          "internalType": "bytes"
        }
      ],
      "stateMutability": "nonpayable"
    },
    {
      "type": "function",
      "name": "getKey",
      "inputs": [],
      "outputs": [
        {
          "name": "",
          "type": "uint256",
          "internalType": "uint256"
        }
      ],
      "stateMutability": "view"
    },
    {
      "type": "function",
      "name": "keyHash",
      "inputs": [
        {
          "name": "to",
          "type": "address",
          "internalType": "address"
        }
      ],
      "outputs": [
        {
          "name": "",
          "type": "bytes32",
          "internalType": "bytes32"
        }
      ],
      "stateMutability": "view"
    },
    {
      "type": "function",
      "name": "packEncryptedData",
      "inputs": [
        {
          "name": "_ciphertext",
          "type": "bytes",
          "internalType": "bytes"
        },
        {
          "name": "_nonce",
          "type": "uint96",
          "internalType": "uint96"
        }
      ],
      "outputs": [
        {
          "name": "",
          "type": "bytes",
          "internalType": "bytes"
        }
      ],
      "stateMutability": "pure"
    },
    {
      "type": "function",
      "name": "parseEncryptedData",
      "inputs": [
        {
          "name": "_encryptedData",
          "type": "bytes",
          "internalType": "bytes"
        }
      ],
      "outputs": [
        {
          "name": "ct",
          "type": "bytes",
          "internalType": "bytes"
        },
        {
          "name": "nce",
          "type": "uint96",
          "internalType": "uint96"
        }
      ],
      "stateMutability": "pure"
    },
    {
      "type": "function",
      "name": "setKey",
      "inputs": [
        {
          "name": "_key",
          "type": "suint256",
          "internalType": "suint256"
        }
      ],
      "outputs": [],
      "stateMutability": "nonpayable"
    },
    {
      "type": "event",
      "name": "KeySet",
      "inputs": [
        {
          "name": "addr",
          "type": "address",
          "indexed": true,
          "internalType": "address"
        }
      ],
      "anonymous": false
    },
    {
      "type": "error",
      "name": "AESPrecompileCallFailed",
      "inputs": []
    },
    {
      "type": "error",
      "name": "CiphertextCannotBeEmpty",
      "inputs": []
    },
    {
      "type": "error",
      "name": "EncryptionReturnedNoOutput",
      "inputs": []
    },
    {
      "type": "error",
      "name": "RNGPrecompileCallFailed",
      "inputs": []
    }
  ],
  "bytecode": {
    "object": "0x608060405234601c57600e6020565b61118761002b823961118790f35b6026565b60405190565b5f80fdfe60806040526004361015610013575b6105f0565b61001d5f3561009c565b8063210ca7be14610097578063415028a91461009257806370df09331461008d57806382678dd6146100885780638b2f9fd114610083578063b7f5f9b71461007e578063e8d6c79a146100795763eefbaf180361000e576105bb565b610560565b6104f7565b61047d565b6103c9565b610362565b6102e3565b610235565b60e01c90565b60405190565b5f80fd5b5f80fd5b5f80fd5b5f80fd5b5f80fd5b601f801991011690565b634e487b7160e01b5f52604160045260245ffd5b906100e4906100bc565b810190811067ffffffffffffffff8211176100fe57604052565b6100c6565b9061011661010f6100a2565b92836100da565b565b67ffffffffffffffff8111610136576101326020916100bc565b0190565b6100c6565b90825f939282370152565b9092919261015b61015682610118565b610103565b93818552602085019082840111610177576101759261013b565b565b6100b8565b9080601f8301121561019a5781602061019793359101610146565b90565b6100b4565b906020828203126101cf575f82013567ffffffffffffffff81116101ca576101c7920161017c565b90565b6100b0565b6100ac565b5190565b60209181520190565b90825f9392825e0152565b61020b61021460209361021993610202816101d4565b938480936101d8565b958691016101e1565b6100bc565b0190565b6102329160208201915f8184039101526101ec565b90565b346102655761026161025061024b36600461019f565b61066f565b6102586100a2565b9182918261021d565b0390f35b6100a8565b6bffffffffffffffffffffffff1690565b6102848161026a565b0361028b57565b5f80fd5b9050359061029c8261027b565b565b91906040838203126102de575f8301359067ffffffffffffffff82116102d9576102cd816102d693860161017c565b9360200161028f565b90565b6100b0565b6100ac565b34610314576103106102ff6102f936600461029e565b90610713565b6103076100a2565b9182918261021d565b0390f35b6100a8565b90565b61032581610319565b0361032c57565b5f80fd5b9050359061033d8261031c565b565b9060208282031261035857610355915f01610330565b90565b6100ac565b5f0190565b346103905761037a61037536600461033f565b61084d565b6103826100a2565b8061038c8161035d565b0390f35b6100a8565b5f91031261039f57565b6100ac565b90565b6103b0906103a4565b9052565b91906103c7905f602085019401906103a7565b565b346103f9576103d9366004610395565b6103f56103e46108e9565b6103ec6100a2565b918291826103b4565b0390f35b6100a8565b60018060a01b031690565b610412906103fe565b90565b61041e81610409565b0361042557565b5f80fd5b9050359061043682610415565b565b906020828203126104515761044e915f01610429565b90565b6100ac565b151590565b61046490610456565b9052565b919061047b905f6020850194019061045b565b565b346104ad576104a9610498610493366004610438565b610925565b6104a06100a2565b91829182610468565b0390f35b6100a8565b9190916040818403126104f2576104cb835f8301610429565b92602082013567ffffffffffffffff81116104ed576104ea920161017c565b90565b6100b0565b6100ac565b346105285761052461051361050d3660046104b2565b90610967565b61051b6100a2565b9182918261021d565b0390f35b6100a8565b6105369061026a565b9052565b9291602061055661055e9360408701908782035f8901526101ec565b94019061052d565b565b346105915761057861057336600461019f565b610bb3565b9061058d6105846100a2565b9283928361053a565b0390f35b6100a8565b90565b6105a290610596565b9052565b91906105b9905f60208501940190610599565b565b346105eb576105e76105d66105d1366004610438565b610cf8565b6105de6100a2565b918291826105a6565b0390f35b6100a8565b5f80fd5b606090565b90565b61061061060b610615926103fe565b6105f9565b6103fe565b90565b610621906105fc565b90565b61062d90610618565b90565b9061063a90610624565b5f5260205260405f2090565b5f1c90565b90565b61065a61065f91610646565b61064b565b90565b61066c90b061064e565b90565b6106846106a09161067e6105f4565b50610bb3565b906106986106935f3390610630565b610662565b919091610de4565b90565b905090565b6106cd6106c4926020926106bb816101d4565b948580936106a3565b938491016101e1565b0190565b60a01b90565b6106e0906106d1565b90565b6106ef6106f49161026a565b6106d7565b9052565b61070861070f91600c94936106a8565b80926106e3565b0190565b6107469061071f6105f4565b5061073761072b6100a2565b938492602084016106f8565b602082018103825203826100da565b90565b90565b61076061075b61076592610749565b6105f9565b610319565b90565b60209181520190565b5f7f5a45524f5f4b4559000000000000000000000000000000000000000000000000910152565b6107a56008602092610768565b6107ae81610771565b0190565b6107c79060208101905f818303910152610798565b90565b156107d157565b6107d96100a2565b62461bcd60e51b8152806107ef600482016107b2565b0390fd5b5f1b90565b906108045f19916107f3565b9181191691161790565b61082261081d61082792610319565b6105f9565b610319565b90565b90565b9061084261083d6108499261080e565b61082a565b82b06107f8565b90b1565b610886906108768161086f6108696108645f61074c565b610319565b91610319565b14156107ca565b6108815f3390610630565b61082d565b336108b17fe09b54ab39b458cc6e350a9444815a294301d94eaa79ba68d8a2f9f9c7c0b4cc91610624565b906108ba6100a2565b806108c48161035d565b0390a2565b5f90565b6108e16108dc6108e692610319565b6105f9565b6103a4565b90565b6108f16108c9565b5061090d6109086109035f3390610630565b610662565b6108cd565b90565b5f90565b151590565b61092290610914565b90565b61094361093e61096492610937610910565b505f610630565b610662565b61095d6109576109525f61074c565b610319565b91610319565b1415610919565b90565b906109c16109896109846109c69461097d6105f4565b505f610630565b610662565b916109af836109a86109a261099d5f61074c565b610319565b91610319565b14156107ca565b6109b7610f8c565b9290839091611066565b610713565b90565b5f90565b90565b6109e46109df6109e9926109cd565b6105f9565b6103a4565b90565b634e487b7160e01b5f52601160045260245ffd5b610a0f610a15919392936103a4565b926103a4565b8203918211610a2057565b6109ec565b90610a37610a3283610118565b610103565b918252565b369037565b90610a66610a4e83610a25565b92602080610a5c8693610118565b9201910390610a3c565b565b610a7c610a77610a8192610749565b6105f9565b6103a4565b90565b6001610a9091016103a4565b90565b634e487b7160e01b5f52603260045260245ffd5b90610ab1826101d4565b811015610ac357600160209102010190565b610a93565b60ff60f81b1690565b610adb9051610ac8565b90565b610aed610af3919392936103a4565b926103a4565b8201809211610afe57565b6109ec565b60200190565b6bffffffffffffffffffffffff60a01b1690565b610b279051610b09565b90565b1b90565b610b48610b43610b3d836101d4565b92610b03565b610b1d565b90600c8110610b56575b5090565b610b76906bffffffffffffffffffffffff60a01b90600c03600802610b2a565b165f610b52565b60a01c90565b610b97610b92610b9c9261026a565b6105f9565b61026a565b90565b610bab610bb091610b7d565b610b83565b90565b90610bbc6105f4565b50610bc56109c9565b50610be2610bd2836101d4565b610bdc600c6109d0565b90610a00565b610beb81610a41565b90610bf55f610a68565b5b80610c09610c03846103a4565b916103a4565b1015610c4057610c3b90610c26610c21878390610aa7565b610ad1565b610c35859183905f1a92610aa7565b53610a84565b610bf6565b5092610c54610c4f600c6109d0565b610a41565b91610c5e5f610a68565b5b80610c73610c6d600c6109d0565b916103a4565b1015610cb457610caf90610c9a610c9585610c8f8a8590610ade565b90610aa7565b610ad1565b610ca9869183905f1a92610aa7565b53610a84565b610c5f565b50935050610cc4610cc991610b2e565b610b9f565b90565b5f90565b90565b610cdf610ce4916103a4565b610cd0565b9052565b610cf481602093610cd3565b0190565b610d44610d21610d1c610d17610d3594610d10610ccc565b505f610630565b610662565b6108cd565b610d296100a2565b92839160208301610ce8565b602082018103825203826100da565b610d56610d50826101d4565b91610b03565b2090565b91610d79602084610d71610d809796600c96610cd3565b0180926106e3565b01906106a8565b90565b90565b610d9a610d95610d9f92610d83565b6105f9565b6103fe565b90565b610dab90610d86565b90565b610db86067610da2565b90565b3d5f14610dd657610dcb3d610a25565b903d5f602084013e5b565b610dde6105f4565b90610dd4565b91610ded6105f4565b50610df7816101d4565b610e09610e035f610a68565b916103a4565b14610e8d57610e465f9392610e37610e2186956108cd565b9193610e2b6100a2565b94859360208501610d5a565b602082018103825203826100da565b610e4e610dae565b90602081019051915afa610e6a610e63610dbb565b9115610456565b610e715790565b5f63a99eec4b60e01b815280610e896004820161035d565b0390fd5b5f63e6ab92c160e01b815280610ea56004820161035d565b0390fd5b90565b610ec0610ebb610ec592610ea9565b6105f9565b6103fe565b90565b610ed190610eac565b90565b610ede6064610ec8565b90565b90565b63ffffffff1690565b610f01610efc610f0692610ee1565b6105f9565b610ee4565b90565b60e01b90565b610f1890610f09565b90565b610f27610f2c91610ee4565b610f0f565b9052565b610f3c81600493610f1b565b0190565b610f54610f4f610f59926103a4565b6105f9565b6103a4565b90565b610f68610f6d91610646565b610f40565b90565b610f84610f7f610f89926103a4565b6105f9565b61026a565b90565b610f946109c9565b505f80610f9f610ed4565b610fc3610fd2610faf6020610eed565b610fb76100a2565b92839160208301610f30565b602082018103825203826100da565b602081019051915afa610fed610fe6610dbb565b9115610456565b6110125761100a602061100f92611002610ccc565b500151610f5c565b610f70565b90565b5f63281dbb5160e01b81528061102a6004820161035d565b0390fd5b90565b61104561104061104a9261102e565b6105f9565b6103fe565b90565b61105690611031565b90565b611063606661104d565b90565b916110a85f9392611099611083869561107d6105f4565b506108cd565b919361108d6100a2565b94859360208501610d5a565b602082018103825203826100da565b6110b0611059565b90602081019051915afa6110cc6110c5610dbb565b9115610456565b61110f576110d9816101d4565b6110eb6110e55f610a68565b916103a4565b146110f35790565b5f637d7da90b60e01b81528061110b6004820161035d565b0390fd5b5f63a99eec4b60e01b8152806111276004820161035d565b0390fdfea26469706673582212207e5a9bd75aa0ec997cc281c715b0db2c2a46ce6efc8fcb1c021ae1352455e1cf64736f6c637828302e382e33312d646576656c6f702e323032362e342e32392b636f6d6d69742e63643931363364380059",
    "linkReferences": {}
  },
  "methodIdentifiers": {
    "checkHasKey(address)": "8b2f9fd1",
    "decrypt(bytes)": "210ca7be",
    "encrypt(address,bytes)": "b7f5f9b7",
    "getKey()": "82678dd6",
    "keyHash(address)": "eefbaf18",
    "packEncryptedData(bytes,uint96)": "415028a9",
    "parseEncryptedData(bytes)": "e8d6c79a",
    "setKey(suint256)": "70df0933"
  },
  "id": 29
}