{
  "abi": [
    {
      "type": "function",
      "name": "DIRECTORY_ADDRESS",
      "inputs": [],
      "outputs": [
        {
          "name": "",
          "type": "address",
          "internalType": "address"
        }
      ],
      "stateMutability": "view"
    },
    {
      "type": "function",
      "name": "INITIAL_OWNER",
      "inputs": [],
      "outputs": [
        {
          "name": "",
          "type": "address",
          "internalType": "address"
        }
      ],
      "stateMutability": "view"
    },
    {
      "type": "function",
      "name": "addProvider",
      "inputs": [
        {
          "name": "_provider",
          "type": "address",
          "internalType": "address"
        }
      ],
      "outputs": [],
      "stateMutability": "nonpayable"
    },
    {
      "type": "function",
      "name": "directory",
      "inputs": [],
      "outputs": [
        {
          "name": "",
          "type": "address",
          "internalType": "contract IDirectory"
        }
      ],
      "stateMutability": "view"
    },
    {
      "type": "function",
      "name": "encryptToProviders",
      "inputs": [
        {
          "name": "_plaintext",
          "type": "bytes",
          "internalType": "bytes"
        }
      ],
      "outputs": [
        {
          "name": "",
          "type": "bytes32[]",
          "internalType": "bytes32[]"
        },
        {
          "name": "",
          "type": "bytes[]",
          "internalType": "bytes[]"
        }
      ],
      "stateMutability": "nonpayable"
    },
    {
      "type": "function",
      "name": "numProviders",
      "inputs": [],
      "outputs": [
        {
          "name": "",
          "type": "uint256",
          "internalType": "uint256"
        }
      ],
      "stateMutability": "view"
    },
    {
      "type": "function",
      "name": "owner",
      "inputs": [],
      "outputs": [
        {
          "name": "",
          "type": "address",
          "internalType": "address"
        }
      ],
      "stateMutability": "view"
    },
    {
      "type": "function",
      "name": "providers",
      "inputs": [
        {
          "name": "",
          "type": "uint256",
          "internalType": "uint256"
        }
      ],
      "outputs": [
        {
          "name": "",
          "type": "address",
          "internalType": "address"
        }
      ],
      "stateMutability": "view"
    },
    {
      "type": "function",
      "name": "removeProvider",
      "inputs": [
        {
          "name": "_provider",
          "type": "address",
          "internalType": "address"
        }
      ],
      "outputs": [],
      "stateMutability": "nonpayable"
    },
    {
      "type": "function",
      "name": "transferOwnership",
      "inputs": [
        {
          "name": "newOwner",
          "type": "address",
          "internalType": "address"
        }
      ],
      "outputs": [],
      "stateMutability": "nonpayable"
    },
    {
      "type": "event",
      "name": "OwnershipTransferred",
      "inputs": [
        {
          "name": "owner",
          "type": "address",
          "indexed": true,
          "internalType": "address"
        }
      ],
      "anonymous": false
    },
    {
      "type": "event",
      "name": "ProviderAdded",
      "inputs": [
        {
          "name": "provider",
          "type": "address",
          "indexed": true,
          "internalType": "address"
        }
      ],
      "anonymous": false
    },
    {
      "type": "event",
      "name": "ProviderRemoved",
      "inputs": [
        {
          "name": "provider",
          "type": "address",
          "indexed": true,
          "internalType": "address"
        }
      ],
      "anonymous": false
    }
  ],
  "bytecode": {
    "object": "0x608060405234601c57600e6020565b61178b61002b823961178b90f35b6026565b60405190565b5f80fdfe60806040526004361015610013575b610800565b61001d5f356100bc565b806346e2577a146100b75780634a8fcf9a146100b257806350f3fc81146100ad5780638a355a57146100a85780638da5cb5b146100a3578063a36250d81461009e578063ba1ab29114610099578063c41c2f2414610094578063ed03b3001461008f5763f2fde38b0361000e576107cd565b610798565b610741565b61067d565b610632565b6105da565b61058a565b610555565b61040f565b610131565b60e01c90565b60405190565b5f80fd5b5f80fd5b5f80fd5b60018060a01b031690565b6100e8906100d4565b90565b6100f4816100df565b036100fb57565b5f80fd5b9050359061010c826100eb565b565b9060208282031261012757610124915f016100ff565b90565b6100cc565b5f0190565b3461015f5761014961014436600461010e565b610c98565b6101516100c2565b8061015b8161012c565b0390f35b6100c8565b5f80fd5b5f80fd5b601f801991011690565b634e487b7160e01b5f52604160045260245ffd5b906101949061016c565b810190811067ffffffffffffffff8211176101ae57604052565b610176565b906101c66101bf6100c2565b928361018a565b565b67ffffffffffffffff81116101e6576101e260209161016c565b0190565b610176565b90825f939282370152565b9092919261020b610206826101c8565b6101b3565b9381855260208501908284011161022757610225926101eb565b565b610168565b9080601f8301121561024a57816020610247933591016101f6565b90565b610164565b9060208282031261027f575f82013567ffffffffffffffff811161027a57610277920161022c565b90565b6100d0565b6100cc565b5190565b60209181520190565b60200190565b90565b6102a390610297565b9052565b906102b48160209361029a565b0190565b60200190565b906102db6102d56102ce84610284565b8093610288565b92610291565b905f5b8181106102eb5750505090565b9091926103046102fe60019286516102a7565b946102b8565b91019190916102de565b5190565b60209181520190565b60200190565b5190565b60209181520190565b90825f9392825e0152565b6103586103616020936103669361034f81610321565b93848093610325565b9586910161032e565b61016c565b0190565b9061037491610339565b90565b60200190565b9061039161038a8361030e565b8092610312565b90816103a26020830284019461031b565b925f915b8383106103b557505050505090565b909192939460206103d76103d18385600195038752895161036a565b97610377565b93019301919392906103a6565b90916103fe61040c9360408401908482035f8601526102be565b91602081840391015261037d565b90565b346104405761042761042236600461024f565b610f68565b9061043c6104336100c2565b928392836103e4565b0390f35b6100c8565b90565b61045181610445565b0361045857565b5f80fd5b9050359061046982610448565b565b9060208282031261048457610481915f0161045c565b90565b6100cc565b634e487b7160e01b5f52603260045260245ffd5b5490565b5f5260205f2090565b6104b38161049d565b8210156104cd576104c56001916104a1565b910201905f90565b610489565b1c90565b60018060a01b031690565b6104f19060086104f693026104d2565b6104d6565b90565b9061050491546104e1565b90565b60016105128161049d565b82101561052f5761052c91610526916104aa565b906104f9565b90565b5f80fd5b61053c906100df565b9052565b9190610553905f60208501940190610533565b565b346105855761058161057061056b36600461046b565b610507565b6105786100c2565b91829182610540565b0390f35b6100c8565b346105b8576105a261059d36600461010e565b611525565b6105aa6100c2565b806105b48161012c565b0390f35b6100c8565b5f9103126105c757565b6100cc565b6105d75f5f906104f9565b90565b3461060a576105ea3660046105bd565b6106066105f56105cc565b6105fd6100c2565b91829182610540565b0390f35b6100c8565b736346d64a3f31774283b72926b75ffda9662266ce90565b61062f61060f565b90565b34610662576106423660046105bd565b61065e61064d610627565b6106556100c2565b91829182610540565b0390f35b6100c8565b60046001609c1b0190565b61067a610667565b90565b346106ad5761068d3660046105bd565b6106a9610698610672565b6106a06100c2565b91829182610540565b0390f35b6100c8565b90565b6106c96106c46106ce926100d4565b6106b2565b6100d4565b90565b6106da906106b5565b90565b6106e6906106d1565b90565b6106f96106f4610667565b6106dd565b90565b6107046106e9565b90565b610710906106b5565b90565b61071c90610707565b90565b61072890610713565b9052565b919061073f905f6020850194019061071f565b565b34610771576107513660046105bd565b61076d61075c6106fc565b6107646100c2565b9182918261072c565b0390f35b6100c8565b61077f90610445565b9052565b9190610796905f60208501940190610776565b565b346107c8576107a83660046105bd565b6107c46107b3611534565b6107bb6100c2565b91829182610783565b0390f35b6100c8565b346107fb576107e56107e036600461010e565b6116ab565b6107ed6100c2565b806107f78161012c565b0390f35b6100c8565b5f80fd5b60209181520190565b5f7f4455504c49434154455f50524f56494445520000000000000000000000000000910152565b6108416012602092610804565b61084a8161080d565b0190565b6108639060208101905f818303910152610834565b90565b1561086d57565b6108756100c2565b62461bcd60e51b81528061088b6004820161084e565b0390fd5b6108bd906108b861089f826116b6565b6108b26108ac5f19610445565b91610445565b14610866565b6109e1565b565b5f1c90565b6108d06108d5916108bf565b6104d6565b90565b6108e290546108c4565b90565b90565b6108fc6108f7610901926108e5565b6106b2565b6100d4565b90565b61090d906108e8565b90565b5f1b90565b9061092660018060a01b0391610910565b9181191691161790565b61093990610707565b90565b90565b9061095461094f61095b92610930565b61093c565b8254610915565b9055565b5f7f554e415554484f52495a45440000000000000000000000000000000000000000910152565b610993600c602092610804565b61099c8161095f565b0190565b6109b59060208101905f818303910152610986565b90565b156109bf57565b6109c76100c2565b62461bcd60e51b8152806109dd600482016109a0565b0390fd5b610a37906109ee5f6108d8565b610a08610a026109fd5f610904565b6100df565b916100df565b14610a39575b610a3233610a2c610a26610a215f6108d8565b6100df565b916100df565b146109b8565b610bb5565b565b610a4a610a4461060f565b5f61093f565b610a0e565b60e01b90565b151590565b610a6381610a55565b03610a6a57565b5f80fd5b90505190610a7b82610a5a565b565b90602082820312610a9657610a93915f01610a6e565b90565b6100cc565b610aa36100c2565b3d5f823e3d90fd5b5f7f50524f56494445525f4e4f5f4b45590000000000000000000000000000000000910152565b610adf600f602092610804565b610ae881610aab565b0190565b610b019060208101905f818303910152610ad2565b90565b15610b0b57565b610b136100c2565b62461bcd60e51b815280610b2960048201610aec565b0390fd5b90565b1b90565b91906008610b54910291610b4e60018060a01b0384610b30565b92610b30565b9181191691161790565b9190610b74610b6f610b7c93610930565b61093c565b908354610b34565b9055565b9081549168010000000000000000831015610bb05782610ba8916001610bae950181556104aa565b90610b5e565b565b610176565b610bf46020610bca610bc56106e9565b610713565b638b2f9fd190610be98592610bdd6100c2565b95869485938493610a4f565b835260048301610540565b03915afa8015610c9357610c0f915f91610c65575b50610b04565b610c23610c1c6001610b2d565b8290610b80565b610c4d7fae9c2c6481964847714ce58f65a7f6dcc41d0d8394449bacdf161b5920c4744a91610930565b90610c566100c2565b80610c608161012c565b0390a2565b610c86915060203d8111610c8c575b610c7e818361018a565b810190610a7d565b5f610c09565b503d610c74565b610a9b565b610ca19061088f565b565b606090565b606090565b610cc1610cbc610cc6926108e5565b6106b2565b610445565b90565b6001610cd59101610445565b90565b634e487b7160e01b5f52601160045260245ffd5b610cf590610445565b5f198114610d035760010190565b610cd8565b67ffffffffffffffff8111610d205760208091020190565b610176565b90610d37610d3283610d08565b6101b3565b918252565b369037565b90610d66610d4e83610d25565b92602080610d5c8693610d08565b9201910390610d3c565b565b67ffffffffffffffff8111610d805760208091020190565b610176565b90610d97610d9283610d68565b6101b3565b918252565b606090565b5f5b828110610daf57505050565b602090610dba610d9c565b8184015201610da3565b90610de9610dd183610d85565b92602080610ddf8693610d68565b9201910390610da1565b565b610df481610297565b03610dfb57565b5f80fd5b90505190610e0c82610deb565b565b90602082820312610e2757610e24915f01610dff565b90565b6100cc565b90610e3682610284565b811015610e47576020809102010190565b610489565b90610e5690610297565b9052565b90929192610e6f610e6a826101c8565b6101b3565b93818552602085019082840111610e8b57610e899261032e565b565b610168565b9080601f83011215610eae57816020610eab93519101610e5a565b90565b610164565b90602082820312610ee3575f82015167ffffffffffffffff8111610ede57610edb9201610e90565b90565b6100d0565b6100cc565b60209181520190565b610f10610f19602093610f1e93610f0781610321565b93848093610ee8565b9586910161032e565b61016c565b0190565b91610f4592610f3860408201935f830190610533565b6020818403910152610ef1565b90565b90610f528261030e565b811015610f63576020809102010190565b610489565b90610f71610ca3565b50610f7a610ca8565b50610f845f610cad565b610f8d5f610cad565b5b80610fa8610fa2610f9d611534565b610445565b91610445565b101561106f576110016020610fc3610fbe6106e9565b610713565b638b2f9fd190610ff6610fe1610fdb600188906104aa565b906104f9565b92610fea6100c2565b95869485938493610a4f565b835260048301610540565b03915afa90811561106a575f9161103c575b50611027575b61102290610cc9565b610f8e565b9061103461102291610cec565b919050611019565b61105d915060203d8111611063575b611055818361018a565b810190610a7d565b5f611013565b503d61104b565b610a9b565b5061108261107c82610d41565b91610dc4565b9061108c5f610cad565b906110965f610cad565b915b826110b26110ac6110a7611534565b610445565b91610445565b10156112d85761110b60206110cd6110c86106e9565b610713565b638b2f9fd1906111006110eb6110e560018a906104aa565b906104f9565b926110f46100c2565b95869485938493610a4f565b835260048301610540565b03915afa80156112d357611127915f916112a5575b5015610a55565b61129b5761117e602061114061113b6106e9565b610713565b63eefbaf189061117361115e61115860018a906104aa565b906104f9565b926111676100c2565b95869485938493610a4f565b835260048301610540565b03915afa8015611296576111a6915f91611268575b506111a18491849092610e2c565b610e4c565b6111b66111b16106e9565b610713565b905f63b7f5f9b7926111d36111cd600188906104aa565b906104f9565b906111f1838b966111fc6111e56100c2565b98899687958694610a4f565b845260048401610f22565b03925af19081156112635761122d6112349261123b945f91611241575b508783916112278383610f48565b52610f48565b5150610cec565b925b610cc9565b91611098565b61125d91503d805f833e611255818361018a565b810190610eb3565b5f611219565b610a9b565b611289915060203d811161128f575b611281818361018a565b810190610e0e565b5f611193565b503d611277565b610a9b565b9161123b90611236565b6112c6915060203d81116112cc575b6112be818361018a565b810190610a7d565b5f611120565b503d6112b4565b610a9b565b50919350509190565b611337906112ee5f6108d8565b6113086113026112fd5f610904565b6100df565b916100df565b14611339575b6113323361132c6113266113215f6108d8565b6100df565b916100df565b146109b8565b611447565b565b61134a61134461060f565b5f61093f565b61130e565b5f7f50524f56494445525f4e4f545f464f554e440000000000000000000000000000910152565b6113836012602092610804565b61138c8161134f565b0190565b6113a59060208101905f818303910152611376565b90565b90565b6113bf6113ba6113c4926113a8565b6106b2565b610445565b90565b6113d66113dc91939293610445565b92610445565b82039182116113e757565b610cd8565b634e487b7160e01b5f52603160045260245ffd5b5f90565b61141691611410611400565b91610b5e565b565b6114218161049d565b801561144257600190039061143f61143983836104aa565b90611404565b55565b6113ec565b611450816116b6565b8061146461145e5f19610445565b91610445565b14611503576114af906114a96114a161149b6001611495611485600161049d565b61148f60016113ab565b906113c7565b906104aa565b906104f9565b9160016104aa565b90610b5e565b6114c16114bc6001610b2d565b611418565b6114eb7f1589f8555933761a3cff8aa925061be3b46e2dd43f621322ab611d300f62b1d991610930565b906114f46100c2565b806114fe8161012c565b0390a2565b61150b6100c2565b62461bcd60e51b81528061152160048201611390565b0390fd5b61152e906112e1565b565b5f90565b61153c611530565b50611547600161049d565b90565b6115a0906115575f6108d8565b61157161156b6115665f610904565b6100df565b916100df565b146115a2575b61159b3361159561158f61158a5f6108d8565b6100df565b916100df565b146109b8565b61163a565b565b6115b36115ad61060f565b5f61093f565b611577565b5f7f5a45524f5f4f574e455200000000000000000000000000000000000000000000910152565b6115ec600a602092610804565b6115f5816115b8565b0190565b61160e9060208101905f8183039101526115df565b90565b1561161857565b6116206100c2565b62461bcd60e51b815280611636600482016115f9565b0390fd5b61165f8161165861165261164d5f610904565b6100df565b916100df565b1415611611565b611669815f61093f565b6116937f04dba622d284ed0014ee4b9a6a68386be1a4c08a4913ae272de89199cc68616391610930565b9061169c6100c2565b806116a68161012c565b0390a2565b6116b49061154a565b565b6116be611530565b506116c85f610cad565b5b806116e36116dd6116d8611534565b610445565b91610445565b1015611728576116fe6116f8600183906104aa565b906104f9565b61171061170a846100df565b916100df565b146117235761171e90610cc9565b6116c9565b905090565b50505f199056fea2646970667358221220374a8087be542b752fbbbb1047046dd65a32572591a613a3a3419d04e4bb230864736f6c637828302e382e33312d646576656c6f702e323032362e342e32392b636f6d6d69742e63643931363364380059",
    "linkReferences": {}
  },
  "methodIdentifiers": {
    "DIRECTORY_ADDRESS()": "ba1ab291",
    "INITIAL_OWNER()": "a36250d8",
    "addProvider(address)": "46e2577a",
    "directory()": "c41c2f24",
    "encryptToProviders(bytes)": "4a8fcf9a",
    "numProviders()": "ed03b300",
    "owner()": "8da5cb5b",
    "providers(uint256)": "50f3fc81",
    "removeProvider(address)": "8a355a57",
    "transferOwnership(address)": "f2fde38b"
  },
  "id": 35
}